:02000000CC2909
:1000060083120313F801F9011030FC00710DF80D8D
:10001600F90D7408F8027508031C750FF902031828
:100026001B287408F80775080318750FF9070310DD
:0A003600F00DF10DFC0B0928080085
:1000400083120313EF0105306F02031830286F0885
:10005000031712078400203080000313EF0A2328BF
:100060006F0803171207840080010313EF036F0862
:100070000317120783160313EE000A30F400F5018C
:10008000831203171008F0001108F100032078080C
:10009000F0007908F1003030F00783166E08840014
:1000A000700880000A30F400F5018312031710086D
:1000B000F0001108F1000320700803179000710888
:1000C000910000307106031D672800307006031D83
:0C00D0006A286D280313EF03372808008E
:1000DC00831603139818742800006E2883126F0877
:0400EC00990008006F
:0E00F0008312031357088A0056088200080086
:1000FE00831203131A08F100981C87281812181679
:06010E007108F00008007A
:10011400831603139816903083129800831687175A
:10012400071383128C1E99281A08F00093280800DC
:1001340078208A110A128000840AD60A0319D70A81
:08014400F003031D9A280800D6
:10014C00831203136A08013A0319B1286A08023AA8
:10015C000319B128B6280130F0000030F100080076
:10016C006A08033A0319BF286A08043A0319BF281E
:10017C00C4280230F0000030F10008006A08053A8B
:10018C000319CD286A08063A0319CD28D228033062
:10019C00F0000030F10008006A08073A031DDB2864
:1001AC000430F0000030F1000800F001F10108000B
:0E01BC000030831203138C1A0130F00008008B
:1001CA0083160313EA01EB0183126A088316EC0013
:1001DA0083126B088316ED00803083126B06F000E1
:1001EA0080307002031DFB2800306A0203180E29B2
:1001FA0001308316EA000030EB0083126A08003CE3
:10020A008316EC0083126B08031C013E8316ED0172
:10021A00ED0283166C0883120317900083160313EA
:10022A006D0883120317910003136C0803179200D9
:10023A002020063083120313ED000030EE006E0812
:10024A00003C031D2A296D08003C031845296D0846
:10025A006C07F20001306D02F0000030031C013E11
:10026A006E02F10070086C0784000008F000720842
:10027A008400700880000130ED02031CEE0324297B
:10028A006C0884002030800083166A086B04031906
:10029A0065298312ED01EE016D086C0784000008E0
:1002AA00203A031D5C29ED0A0319EE0A512901308F
:1002BA00ED02031CEE036D086C0784002D308000EC
:0202CA0008002A
:1002CC0083120313F3017308033C031C9E290B08D0
:1002DC00F2006A0803178D0003136B0803178F00D5
:1002EC007308F000F00D701003136C08F007700821
:1002FC008400000803178C00700A840000088E002C
:10030C0083168C170C158B1355308D00AA308D006D
:10031C008C1400000000F21B95298B1396298B1767
:10032C000C1183120313EA0A0319EB0AF30A692965
:02033C000800B7
:10033E0083120313EC016A0884000008EB006B08BB
:10034E00003A0319B4296B08EF006E20EC0A6C0812
:0C035E006A0784000008EB00A6290800D4
:10036A00831203136A0803178D0003136B0803171C
:10037A008F0083168C170C140000000083120E08DD
:0E038A00F100F0010C08F0040030F10408004E
:10039800C423831603138601FF30831286000030BE
:1003A800D4000530D50081308316990018158A20AD
:1003B8000330FB008A30FC005530FD00FD0BE229BC
:1003C800FC0BE229FB0BE229000000002030EA00C8
:1003D8009F214030EA009F21D201D301003053020F
:1003E800031DF829803052020318622ADE01DF015A
:1003F80000305F02031D022A08305E020318202A1B
:10040800DE20700803190C2A7F207008DD000D2AF1
:10041800042A5D08493A0319162A5D08443A031963
:10042800162A172A202A5E08623E84005D0880008A
:10043800DE0A0319DF0AFC295208F0005308F1000C
:10044800F00DF10D7010F00DF10D701070085407DB
:10045800EA0055080318013E7107EB006230EC0012
:1004680066215D08493A03193E2A5D08443A031992
:100478003E2A3F2A622A86010230FB004530FC00F2
:10048800A930FD00FD0B462AFC0B462AFB0B462A29
:1004980000000000FF3086000230FB004530FC0001
:1004A800A930FD00FD0B562AFC0B562AFB0B562AD9
:1004B80000000000D20A0319D30AF2290030D40040
:1004C8000530D500E001E1015208F1005308F200BF
:1004D800F10DF20D7110F10DF20D7110720861023B
:1004E800031D782A710860020318A72A5408EA0035
:1004F8005508EB00B52170080313D8007108D9001E
:10050800D40A0319D50A1030FD00FD0B892A000012
:100518005808EF006E205908F000F1017008EF004C
:100528006E200230FB004530FC00A930FD00FD0BB9
:100538009B2AFC0B9B2AFB0B9B2A00000000E00A6D
:100548000319E10A682A5F08003C031DAD2A5E080A
:10055800003C013003180030F10008307102031824
:100568001F2BE001E1015E08EA00A6207108610284
:10057800031DC02A7008600203181F2B5408EA00E4
:100588005508EB00B52170080313D8007108D9008D
:10059800D40A0319D50A1030FD00FD0BD12A00003A
:1005A8005E08EA00A62001307002F2000030031C49
:1005B800013E7102F30061087306031DE52A720803
:1005C8006006031D042B01305E05F1005F08F20090
:1005D8000030F20500307206031DF42A003071065F
:1005E800031D002B5808EF006E205908F000F10198
:1005F8007008EF006E201F2B5808EF006E201F2B8D
:100608005808EF006E205908F000F1017008EF005B
:100618006E200230FB004530FC00A930FD00FD0BC8
:10062800132BFC0B132BFB0B132B00000000E00A11
:100638000319E10AB72AA030EA009F215208EA000C
:100648005308EB00EA0DEB0D6A10EA0DEB0D6A108A
:10065800EA0DEB0D6A105E08EA075F080318013E11
:10066800EB075A30EC00E5205A3083120313EA00F6
:0C0678009F21C230EA009F21402B412B43
:1007880020308400323083120313F0009130D600F9
:100798000330D7009A20A03084004A300313F000B9
:0C07A8004730D6000330D7009A2008002C
:10068E000A340D3454346F34743461346C34203481
:10069E006F34663420346234793474346534733490
:1006AE00203469346E342034743468346534203424
:1006BE006D346534733473346134673465343A346D
:0406CE0020340034A0
:1006D2000A340D342D342D342D342D342D342D3453
:1006E2002D342D342D342D342D342D342D342D3400
:1006F2002D342D342D342D342D342D342D342D34F0
:100702002D342D342D342D342D342D342D342D34DF
:100712002D342D342D342D342D340D340A3400343F
:1007220045346E3474346534723420346134203488
:100732006D34653473347334613467346534203412
:10074200663472346F346D3420346B3465347934EA
:1007520062346F346134723464340A340D340034D8
:1007620059346F347534723420346D3465347334D3
:1007720073346134673465342034693473343A3401
:0407820020340034EB
:02400E004A2F37
:00000001FF
