:02000000942941
:1000060083120313F801F9011030FC00710DF80D8D
:10001600F90D7408F8027508031C750FF902031828
:100026001B287408F80775080318750FF9070310DD
:0A003600F00DF10DFC0B0928080085
:1000400083120313EF0105306F02031830286F0885
:10005000031712078400203080000313EF0A2328BF
:100060006F0803171207840080010313EF036F0862
:100070000317120783160313EE000A30F400F5018C
:10008000831203171008F0001108F100032078080C
:10009000F0007908F1003030F00783166E08840014
:1000A000700880000A30F400F5018312031710086D
:1000B000F0001108F1000320700803179000710888
:1000C000910000307106031D672800307006031D83
:0C00D0006A286D280313EF03372808008E
:1000DC00831603139818742800006E2883126F0877
:0400EC00990008006F
:0E00F000831203135F088A005E088200080076
:1000FE0083120313EC016A0884000008EB006B08FE
:10010E00003A031994286B08EF006E20EC0A6C0875
:0C011E006A0784000008EB008628080037
:10012A008316031398169030831298008316871744
:10013A00071383128C1EA4281A08F0009E280800B0
:10014A0078208A110A128000840ADE0A0319DF0A5B
:08015A00F003031DA5280800B5
:0E0162000030831203138C1A0130F0000800E5
:1001700083120313F3017308033C031CF0280B08DC
:10018000F2006A0803178D0003136B0803178F0032
:100190007308F000F00D701003136C08F00770087E
:1001A0008400000803178C00700A840000088E0089
:1001B00083168C170C158B1355308D00AA308D00CB
:1001C0008C1400000000F21BE7288B13E8288B1723
:1001D0000C1183120313EA0A0319EB0AF30ABB2872
:0201E000080015
:1001E20083160313EA01EB0183126A088316EC00FB
:1001F20083126B088316ED00803083126B06F000C9
:1002020080307002031D072900306A0203181A2980
:1002120001308316EA000030EB0083126A08003CCA
:100222008316EC0083126B08031C013E8316ED015A
:10023200ED0283166C0883120317900083160313D2
:100242006D0883120317910003136C0803179200C1
:100252002020063083120313ED000030EE006E08FA
:10026200003C031D36296D08003C031851296D0816
:100272006C07F20001306D02F0000030031C013EF9
:100282006E02F10070086C0784000008F00072082A
:100292008400700880000130ED02031CEE03302957
:1002A2006C0884002030800083166A086B040319EE
:1002B20071298312ED01EE016D086C0784000008BC
:1002C200203A031D6829ED0A0319EE0A5D2901305F
:1002D200ED02031CEE036D086C0784002D308000D4
:0202E200080012
:1002E400831203136A0803178D0003136B080317A3
:1002F4008F0083168C170C140000000083120E0864
:0E030400F100F0010C08F0040030F1040800D4
:10031200831203131A08F100981C91291812181657
:060322007108F000080064
:100328004423831603138601FF30831286000030AE
:10033800DC000530DD008130831699001815952002
:100348000330FB008A30FC005530FD00FD0BAA2964
:10035800FC0BAA29FB0BAA29000000002030EA00A8
:100368007F204030EA007F20DA01DB0100305B02A9
:10037800031DC02980305A0203182B2AE601E70121
:1003880000306702031DCA29083066020318E929EC
:10039800B12070080319D42989217008E500D529EE
:1003A800CC296508493A0319DE296508443A031936
:1003B800DE29DF29E9296608523E840065088000A5
:1003C8000230E6070318E70AC4295A08F0005B0858
:1003D800F100F00DF10D7010F00DF10D70107008B6
:1003E8005C07EA005D080318013E7107EB00523014
:1003F800EC00B8206508493A0319072A6508443A09
:100408000319072A082A2B2A86010230FB004530E7
:10041800FC00A930FD00FD0B0F2AFC0B0F2AFB0B7B
:100428000F2A00000000FF3086000230FB00453034
:10043800FC00A930FD00FD0B1F2AFC0B1F2AFB0B3B
:100448001F2A00000000DA0A0319DB0ABA29003063
:10045800DC000530DD00E801E9015A08F1005B081D
:10046800F200F10DF20D7110F10DF20D711072081C
:100478006902031D412A7108680203185C2A5C0896
:10048800EA005D08EB00722170080313E0007108B0
:10049800E100DC0A0319DD0A1030FD00FD0B522AC9
:1004A80000006008EF006E20E80A0319E90A312A03
:1004B8006708003C031D622A6608013C01300318E6
:1004C8000030F100093071020318942AE801E901AB
:1004D8006608F1006708F200F20CF10CF2137208DA
:1004E8006902031D792A710868020318942A5C08B6
:1004F800EA005D08EB00722170080313E000710840
:10050800E100DC0A0319DD0A1030FD00FD0B8A2A20
:1005180000006008EF006E20E80A0319E90A6C2A57
:10052800A030EA007F205A08EA005B08EB00EA0DD9
:10053800EB0D6A10EA0DEB0D6A106608F00067080B
:10054800F100F10CF00CF1137008EA0771080318B8
:10055800013EEB076230EC00F12062308312031396
:0E056800EA007F20C230EA007F20B92ABA2ABA
:1006880020308400323083120313F0000A30DE0079
:100698000330DF00A520A03084004A308312F00028
:1006A800C030DE000230DF00A52052308400083060
:1006B8008312F0003C30DE000330DF00A520080084
:100580000A340D3454346F34743461346C34203490
:100590006F3466342034623479347434653473349F
:1005A000203469346E342034743468346534203433
:1005B0006D346534733473346134673465343A347C
:0405C00020340034AF
:1005C4000A340D342D342D342D342D342D342D3462
:1005D4002D342D342D342D342D342D342D342D340F
:1005E4002D342D342D342D342D342D342D342D34FF
:1005F4002D342D342D342D342D342D342D342D34EF
:100604002D342D342D342D342D340D340A3400344E
:1006140045346E3474346534723420346134203497
:100624006D34653473347334613467346534203421
:10063400663472346F346D3420346B3465347934F9
:1006440062346F346134723464340A340D340034E7
:1006540059346F347534723420346D3465347334E2
:1006640073346134673465342034693473343A3410
:0406740020340034FA
:1006780000340034003400340034003400340034D2
:02400E004A2F37
:00000001FF
