:02000000B02925
:1000060083120313F801F9011030FC00710DF80D8D
:10001600F90D7408F8027508031C750FF902031828
:100026001B287408F80775080318750FF9070310DD
:0A003600F00DF10DFC0B0928080085
:1000400083160313C5010530450203182E28450801
:100050004407840020308000C50A2328450844074F
:1000600084008001C50345084407C6000A30F40037
:10007000F5014208F0004308F10003207808F00081
:100080007908F1003030F0078316460884007008C4
:1000900080000A30F400F5014208F0004308F10046
:1000A000032070088316C2007108C3000030710677
:1000B000031D5C2800307006031D5F286128C503FE
:0400C00033280800D9
:1000C40083160313981868280000622842088312D4
:0400D4009900080087
:0E00D8008312031353088A00520882000800A6
:1000E600831203131A08F100981C7B28181218169D
:0600F6007108F000080093
:1000FC008316031398169030831298008316871773
:10010C00071383128C1E8D281A08F000872808000C
:10011C006C208A110A128000840AD20A0319D30AAD
:08012C00F003031D8E280800FA
:10013400831203136708013A0319A5286708023AD2
:100144000319A528AA280130F0000030F1000800A6
:100154006708033A0319B3286708043A0319B32854
:10016400B8280230F0000030F10008006708053AB2
:100174000319C1286708063A0319C128C6280330A1
:10018400F0000030F10008006708073A031DCF288B
:100194000430F0000030F1000800F001F101080023
:0E01A4000030831203138C1A0130F0000800A3
:1001B20083120313EC01ED016708EE006808EF00FB
:1001C20080306806F00080307002031DEA2800309B
:1001D20067020318F8280130EC000030ED006708D0
:1001E200003CEE006808031C013EEF01EF026E08BE
:1001F2008316C20083126F088316C3008312690834
:100202008316C400202006308312EA000030EB007F
:100212006B08003C031D0F296A08003C03182A29B9
:100222006A086907F20001306A02F0000030031C1C
:10023200013E6B02F1007008690784000008F000BB
:1002420072088400700880000130EA02031CEB038C
:10025200092969088400203080006C086D040319A4
:100262004829EA01EB016A08690784000008203A7C
:10027200031D3F29EA0A0319EB0A34290130EA0275
:10028200031CEB036A08690784002D308000080014
:1002920083120313F3017308033C031C81290B0827
:1002A200F200670803178D000313680803178F0015
:1002B2007308F000F00D701003136908F00770085E
:1002C2008400000803178C00700A840000088E0066
:1002D20083168C170C158B1355308D00AA308D00A8
:1002E2008C1400000000F21B78298B1379298B17DC
:1002F2000C1183120313E70A0319E80AF30A4C29C3
:020302000800F1
:1003040083120313E901670884000008E800680801
:10031400003A0319982968088316C2006220E90A82
:0E0324006908670784000008E80089290800BE
:1003320083120313670803178D000313680803175A
:100342008F0083168C170C140000000083120E0815
:0E035200F100F0010C08F0040030F104080086
:100360006223831603138601FF3083128600003058
:10037000D4000530D50081308316990018157E20F1
:100380000330FB008A30FC005530FD00FD0BC62910
:10039000FC0BC629FB0BC629000000002030E7003B
:1003A00082214030E7008221D601803056020318B6
:1003B000372ADD0108305D020318F829D2207008C1
:1003C0000319E62973207008DE00E729DE295E089C
:1003D000493A0319F0295E08443A0319F029F12932
:1003E000F8295D085F3E84005E088000DD0ADA2996
:1003F0005608F000F101F00DF10D7010F00DF10D47
:10040000701070085407E70055080318013E710783
:10041000E8005F30E90049215E08493A0319152ACE
:100420005E08443A0319152A162A372A8601023033
:10043000FB004530FC00A930FD00FD0B1D2AFC0B24
:100440001D2AFB0B1D2A00000000FF308600023031
:10045000FB004530FC00A930FD00FD0B2D2AFC0BF4
:100460002D2AFB0B2D2A00000000D60AD5290030CA
:10047000D4000530D500DC015608F100F201F10D81
:10048000F20D7110F10DF20D71108030F00080301E
:1004900072067002031D4E2A71085C0203187C2A42
:1004A0005408E7005508E800992170080313D700A5
:1004B0007108D800D40A0319D50A1030FD00FD0BCD
:1004C0005F2A000057088316C20062205808F00017
:1004D000F10170088316C20062200D30FB00AF30BE
:1004E000FC00B630FD00FD0B732AFC0B732AFB0BDE
:1004F000732A0000DC0A3C2A5D08003C0130031826
:100500000030F100083071020318EC2ADC015D08AC
:10051000E7009A208030F200803071067202031DDD
:10052000932A70085C020318EC2A5408E700550867
:10053000E800992170080313D7007108D800D40A85
:100540000319D50A1030FD00FD0BA42A00005D0838
:10055000E7009A2001307002F2000030031C013ED7
:100560007102F30000307306031DB82A72085C069E
:10057000031DD22A01305D05F1007108003A031D08
:10058000CD2A57088316C20062205808F000F101F6
:1005900070088316C2006220EC2A57088316C20036
:1005A0006220EC2A57088316C20062205808F00027
:1005B000F10170088316C20062200D30FB00AF30DD
:1005C000FC00B630FD00FD0BE32AFC0BE32AFB0B1D
:1005D000E32A0000DC0A872AA030E70082210330EA
:1005E000F0005608E700E80170080319FC2AE70D3F
:1005F000E80D6710FF3EF52A5D08E7070318E80AD3
:100600005930E900D9205930E7008221062B072B09
:1006C40020308400323083120313F0000D30D20046
:1006D4000330D3008E20A030840022300313F000B6
:0C06E4003F30D2000330D3008E2008000D
:10061A0045346E3474346534723420346134203491
:10062A006D3465347334733461346734653420341B
:10063A00663472346F346D3420346B3465347934F3
:10064A0062346F346134723464340A340D340034E1
:10065A0059346F347534723420346D3465347334DC
:10066A0073346134673465342034693473343A340A
:04067A0020340034F4
:10067E000A340D3454346F34743461346C34203491
:10068E006F346634203462347934743465347334A0
:10069E00203469346E342034743468346534203434
:1006AE006D346534733473346134673465343A347D
:0406BE0020340034B0
:02400E004A2F37
:00000001FF
