:02000000B02925
:1000060083120313F801F9011030FC00710DF80D8D
:10001600F90D7408F8027508031C750FF902031828
:100026001B287408F80775080318750FF9070310DD
:0A003600F00DF10DFC0B0928080085
:1000400083160313ED0105306D0203182E286D0889
:100050006C07840020308000ED0A23286D086C07AF
:1000600084008001ED036D086C07EE000A30F40097
:10007000F5016A08F0006B08F10003207808F00031
:100080007908F1003030F00783166E08840070089C
:1000900080000A30F400F5016A08F0006B08F100F6
:1000A000032070088316EA007108EB000030710627
:1000B000031D5C2800307006031D5F286128ED03D6
:0400C00033280800D9
:1000C4008316031398186828000062286A088312AC
:0400D4009900080087
:0E00D8008312031356088A00550882000800A0
:1000E600831203131A08F100981C7B28181218169D
:0600F6007108F000080093
:1000FC008316031398169030831298008316871773
:10010C00071383128C1E8D281A08F000872808000C
:10011C006C208A110A128000840AD50A0319D60AA7
:08012C00F003031D8E280800FA
:10013400831203136708013A0319A5286708023AD2
:100144000319A528AA280130F0000030F1000800A6
:100154006708033A0319B3286708043A0319B32854
:10016400B8280230F0000030F10008006708053AB2
:100174000319C1286708063A0319C128C6280330A1
:10018400F0000030F10008006708073A031DCF288B
:100194000430F0000030F1000800F001F101080023
:0E01A4000030831203138C1A0130F0000800A3
:1001B20083120313EC01ED016708EE006808EF00FB
:1001C20080306806F00080307002031DEA2800309B
:1001D20067020318F8280130EC000030ED006708D0
:1001E200003CEE006808031C013EEF01EF026E08BE
:1001F2008316EA0083126F088316EB0083126908E4
:100202008316EC00202006308312EA000030EB0057
:100212006B08003C031D0F296A08003C03182A29B9
:100222006A086907F20001306A02F0000030031C1C
:10023200013E6B02F1007008690784000008F000BB
:1002420072088400700880000130EA02031CEB038C
:10025200092969088400203080006C086D040319A4
:100262004829EA01EB016A08690784000008203A7C
:10027200031D3F29EA0A0319EB0A34290130EA0275
:10028200031CEB036A08690784002D308000080014
:1002920083120313F3017308033C031C81290B0827
:1002A200F200670803178D000313680803178F0015
:1002B2007308F000F00D701003136908F00770085E
:1002C2008400000803178C00700A840000088E0066
:1002D20083168C170C158B1355308D00AA308D00A8
:1002E2008C1400000000F21B78298B1379298B17DC
:1002F2000C1183120313E70A0319E80AF30A4C29C3
:020302000800F1
:1003040083120313E901670884000008E800680801
:10031400003A0319982968088316EA006220E90A5A
:0E0324006908670784000008E80089290800BE
:1003320083120313670803178D000313680803175A
:100342008F0083168C170C140000000083120E0815
:0E035200F100F0010C08F0040030F104080086
:100360005423831603138601FF3083128600003066
:10037000D3000530D40081308316990018157E20F3
:100380000330FB008A30FC005530FD00FD0BC62910
:10039000FC0BC629FB0BC629000000002030E7003B
:1003A00082214030E7008221D201803052020318BE
:1003B000182ADD0108305D020318F829D2207008E0
:1003C0000319E62973207008DC00E729DE295C08A0
:1003D000493A0319F0295C08443A0319F029F12934
:1003E000F8295D085F3E84005C088000DD0ADA2998
:1003F0005208F000F101F00DF10D7010F00DF10D4B
:10040000701070085307E70054080318013E710785
:10041000E8005F30E90049215C08493A0319152AD0
:100420005C08443A0319152A162A182AD20AD52933
:100430000030D3000530D400DE015208F100F20193
:10044000F10DF20D7110F10DF20D71108030F00010
:10045000803072067002031D2F2A71085E02031895
:10046000502A5308E7005408E80099217008031344
:10047000D7007108D800D30A0319D40A1030FD0040
:10048000FD0B402A000057088316EA006220580836
:10049000F000F10170088316EA006220DE0A1D2ACE
:1004A0005D08003C013003180030F1000830710293
:1004B0000318B32ADE015D08E7009A208030F200BD
:1004C000803071067202031D672A70085E020318ED
:1004D000B32A5308E7005408E80099217008031371
:1004E000D7007108D800D30A0319D40A1030FD00D0
:1004F000FD0B782A00005D08E7009A2001307002A9
:10050000F2000030031C013E7102F300003073065C
:10051000031D8C2A72085E06031DA62A01305D05A4
:10052000F1007108003A031DA12A57088316EA005A
:1005300062205808F000F10170088316EA0062207A
:10054000B32A57088316EA006220B32A5708831695
:10055000EA0062205808F000F10170088316EA00F2
:100560006220DE0A5B2AA030E70082210330F0001F
:100570005208E700E80170080319C32AE70DE80DE7
:100580006710FF3EBC2A5D08E7070318E80A5930E8
:10059000E900D9205930E7008221C230E7008221EA
:0405A000D129D12A62
:1006A80020308400323083120313F0002130D5004B
:1006B8000330D6008E20A03084004A300313F000A7
:0C06C800D730D5000230D6008E2008008C
:1005AE000A340D3454346F34743461346C34203462
:1005BE006F34663420346234793474346534733471
:1005CE00203469346E342034743468346534203405
:1005DE006D346534733473346134673465343A344E
:0405EE002034003481
:1005F2000A340D342D342D342D342D342D342D3434
:100602002D342D342D342D342D342D342D342D34E0
:100612002D342D342D342D342D342D342D342D34D0
:100622002D342D342D342D342D342D342D342D34C0
:100632002D342D342D342D342D340D340A34003420
:1006420045346E3474346534723420346134203469
:100652006D346534733473346134673465342034F3
:10066200663472346F346D3420346B3465347934CB
:1006720062346F346134723464340A340D340034B9
:1006820059346F347534723420346D3465347334B4
:1006920073346134673465342034693473343A34E2
:0406A20020340034CC
:02400E004A2F37
:00000001FF
